8=FIX.4.2|9=000|35=8|49=BROKER1|56=CLIENT1|34=1|52=2026-06-14 09:30:02|37=B-1001|11=ORD-1001|17=E-1001-N|150=0|39=0|55=AAPL|54=1|38=1000|44=190.25|32=0|31=0.0000|151=1000|14=0|6=0.0000|60=2026-06-14 09:30:02|10=001|
8=FIX.4.2|9=000|35=8|49=BROKER1|56=CLIENT1|34=2|52=2026-06-14 09:30:07|37=B-1001|11=ORD-1001|17=E-1001-F1|150=1|39=1|55=AAPL|54=1|38=1000|44=190.25|32=400|31=190.2200|151=600|14=400|6=190.2200|60=2026-06-14 09:30:07|10=002|
8=FIX.4.2|9=000|35=8|49=BROKER1|56=CLIENT1|34=3|52=2026-06-14 09:30:09|37=B-1001|11=ORD-1001|17=E-1001-F2|150=2|39=2|55=AAPL|54=1|38=1000|44=190.25|32=600|31=190.2800|151=0|14=1000|6=190.2560|60=2026-06-14 09:30:09|10=003|
8=FIX.4.2|9=000|35=8|49=BROKER1|56=CLIENT1|34=4|52=2026-06-14 09:31:11|37=B-1002|11=ORD-1002|17=E-1002-F1|150=2|39=2|55=MSFT|54=2|38=500|44=420.10|32=500|31=420.0500|151=0|14=500|6=420.0500|60=2026-06-14 09:31:11|10=004|
8=FIX.4.2|9=000|35=8|49=BROKER1|56=CLIENT1|34=5|52=2026-06-14 09:35:15|37=B-1003|11=ORD-1003|17=E-1003-F1|150=2|39=2|55=TSLA|54=1|38=200|32=200|31=181.7500|151=0|14=200|6=181.7500|60=2026-06-14 09:35:15|10=005|
8=FIX.4.2|9=000|35=8|49=BROKER1|56=CLIENT1|34=6|52=2026-06-14 09:38:46|37=B-1004|11=ORD-1004|17=E-1004-R1|150=8|39=8|55=NVDA|54=1|38=150|44=900.00|32=0|31=0.0000|151=150|14=0|6=0.0000|60=2026-06-14 09:38:46|58=Limit price outside broker risk band|10=006|
8=FIX.4.2|9=000|35=8|49=BROKER1|56=CLIENT1|34=7|52=2026-06-14 09:40:08|37=B-1005|11=ORD-1005|17=E-1005-F1|150=2|39=2|55=AMZN|54=2|38=300|44=180.50|32=300|31=180.4500|151=0|14=300|6=180.4500|60=2026-06-14 09:40:08|10=007|
8=FIX.4.2|9=000|35=8|49=BROKER1|56=CLIENT1|34=8|52=2026-06-14 09:42:28|37=B-1006|11=ORD-1006|17=E-1006-F1|150=2|39=2|55=META|54=1|38=1000|44=500.00|32=1000|31=501.0000|151=0|14=1000|6=501.0000|60=2026-06-14 09:42:28|10=008|
8=FIX.4.2|9=000|35=8|49=BROKER1|56=CLIENT1|34=9|52=2026-06-14 09:45:05|37=B-1007|11=ORD-1007|17=E-1007-F1|150=2|39=2|55=JPM|54=2|38=600|44=205.30|32=600|31=205.3100|151=0|14=600|6=205.3100|60=2026-06-14 09:45:05|10=009|
8=FIX.4.2|9=000|35=8|49=BROKER1|56=CLIENT1|34=10|52=2026-06-14 10:00:01|37=B-1008|11=ORD-1008|17=E-1008-N|150=0|39=0|55=IBM|54=1|38=400|44=190.00|32=0|31=0.0000|151=400|14=0|6=0.0000|60=2026-06-14 10:00:01|10=010|
8=FIX.4.2|9=000|35=8|49=BROKER1|56=CLIENT1|34=11|52=2026-06-14 10:05:04|37=B-1009|11=ORD-1009|17=E-DUP-900|150=2|39=2|55=ORCL|54=1|38=250|44=130.25|32=250|31=130.2400|151=0|14=250|6=130.2400|60=2026-06-14 10:05:04|10=011|
8=FIX.4.2|9=000|35=8|49=BROKER1|56=CLIENT1|34=12|52=2026-06-14 10:05:05|37=B-1009|11=ORD-1009|17=E-DUP-900|150=2|39=2|55=ORCL|54=1|38=250|44=130.25|32=250|31=130.2400|151=0|14=250|6=130.2400|60=2026-06-14 10:05:05|10=012|
8=FIX.4.2|9=000|35=8|49=BROKER1|56=CLIENT1|34=13|52=2026-06-14 10:12:07|37=B-1010|11=ORD-1010|17=E-1010-F1|150=2|39=2|55=ADBE|54=2|38=120|44=475.10|32=120|31=475.0900|151=0|14=120|6=475.0900|60=2026-06-14 10:12:07|10=013|
8=FIX.4.2|9=000|35=8|49=BROKER1|56=CLIENT1|34=14|52=2026-06-14 10:20:05|37=B-1012|11=ORD-1012|17=E-1012-F1|150=2|39=2|55=GOOGL|54=1|38=100|44=175.00|32=100|31=175.0100|151=0|14=100|6=175.0100|60=2026-06-14 10:20:05|10=014|
8=FIX.4.2|9=000|35=8|49=BROKER1|56=CLIENT1|34=15|52=2026-06-14 10:25:07|37=B-1013|11=ORD-1013|17=E-1013-P1|150=1|39=1|55=AMD|54=2|38=800|44=160.00|32=300|31=160.0100|151=500|14=300|6=160.0100|60=2026-06-14 10:25:07|10=015|
8=FIX.4.2|9=000|35=8|49=BROKER1|56=CLIENT1|34=16|52=2026-06-14 10:30:07|37=B-1014|11=ORD-1014|17=E-1014-P1|150=1|39=1|55=INTC|54=1|38=1000|44=33.00|32=700|31=33.0100|151=400|14=700|6=33.0100|60=2026-06-14 10:30:07|10=016|
8=FIX.4.2|9=000|35=8|49=BROKER1|56=CLIENT1|34=17|52=2026-06-14 10:40:03|37=B-9999|11=ORD-9999|17=E-9999-F1|150=2|39=2|55=SPY|54=1|38=50|32=50|31=550.1000|151=0|14=50|6=550.1000|60=2026-06-14 10:40:03|10=017|
